{
  "contractName": "MyContract",
  "abi": [
    {
      "constant": true,
      "inputs": [],
      "name": "x",
      "outputs": [
        {
          "name": "",
          "type": "uint256"
        }
      ],
      "payable": false,
      "stateMutability": "view",
      "type": "function"
    },
    {
      "constant": true,
      "inputs": [
        {
          "name": "contractName",
          "type": "string"
        },
        {
          "name": "migrationId",
          "type": "string"
        }
      ],
      "name": "isMigrated",
      "outputs": [
        {
          "name": "",
          "type": "bool"
        }
      ],
      "payable": false,
      "stateMutability": "view",
      "type": "function"
    },
    {
      "anonymous": false,
      "inputs": [
        {
          "indexed": false,
          "name": "contractName",
          "type": "string"
        },
        {
          "indexed": false,
          "name": "migrationId",
          "type": "string"
        }
      ],
      "name": "Migrated",
      "type": "event"
    },
    {
      "constant": false,
      "inputs": [
        {
          "name": "_x",
          "type": "uint256"
        }
      ],
      "name": "initialize",
      "outputs": [],
      "payable": false,
      "stateMutability": "nonpayable",
      "type": "function"
    },
    {
      "constant": false,
      "inputs": [],
      "name": "increment",
      "outputs": [],
      "payable": false,
      "stateMutability": "nonpayable",
      "type": "function"
    },
    {
      "constant": false,
      "inputs": [],
      "name": "decrement",
      "outputs": [],
      "payable": false,
      "stateMutability": "nonpayable",
      "type": "function"
    }
  ],
  "bytecode": "0x608060405234801561001057600080fd5b50610584806100206000396000f30060806040526004361061006d576000357c0100000000000000000000000000000000000000000000000000000000900463ffffffff1680630c55699c146100725780632baeceb71461009d578063c0bac1a8146100b4578063d09de08a1461017b578063fe4b84df14610192575b600080fd5b34801561007e57600080fd5b506100876101bf565b6040518082815260200191505060405180910390f35b3480156100a957600080fd5b506100b26101c5565b005b3480156100c057600080fd5b50610161600480360381019080803590602001908201803590602001908080601f0160208091040260200160405190810160405280939291908181526020018383808284378201915050505050509192919290803590602001908201803590602001908080601f01602080910402602001604051908101604052809392919081815260200183838082843782019150505050505091929192905050506101d7565b604051808215151515815260200191505060405180910390f35b34801561018757600080fd5b506101906102c2565b005b34801561019e57600080fd5b506101bd600480360381019080803590602001909291905050506102d4565b005b60015481565b60018060008282540392505081905550565b600080836040518082805190602001908083835b60208310151561021057805182526020820191506020810190506020830392506101eb565b6001836020036101000a0380198251168184511680821785525050505050509050019150509081526020016040518091039020826040518082805190602001908083835b6020831015156102795780518252602082019150602081019050602083039250610254565b6001836020036101000a038019825116818451168082178552505050505050905001915050908152602001604051809103902060009054906101000a900460ff16905092915050565b60018060008282540192505081905550565b6040805190810160405280600a81526020017f4d79436f6e7472616374000000000000000000000000000000000000000000008152506040805190810160405280600181526020017f300000000000000000000000000000000000000000000000000000000000000081525061034a82826101d7565b15151561035657600080fd5b826001819055507fdd117a11c22118c9dee4b5a67ce578bc44529dce21ee0ccc439588fbb9fb4ea38282604051808060200180602001838103835285818151815260200191508051906020019080838360005b838110156103c45780820151818401526020810190506103a9565b50505050905090810190601f1680156103f15780820380516001836020036101000a031916815260200191505b50838103825284818151815260200191508051906020019080838360005b8381101561042a57808201518184015260208101905061040f565b50505050905090810190601f1680156104575780820380516001836020036101000a031916815260200191505b5094505050505060405180910390a160016000836040518082805190602001908083835b6020831015156104a0578051825260208201915060208101905060208303925061047b565b6001836020036101000a0380198251168184511680821785525050505050509050019150509081526020016040518091039020826040518082805190602001908083835b60208310151561050957805182526020820191506020810190506020830392506104e4565b6001836020036101000a038019825116818451168082178552505050505050905001915050908152602001604051809103902060006101000a81548160ff0219169083151502179055505050505600a165627a7a72305820a995a5faba80b38680bbc1d000bf379add04fc2aa1b90d8145a3ffdc7d9101200029",
  "source": "pragma solidity ^0.4.24;\n\nimport \"zos-lib/contracts/migrations/Migratable.sol\";\n\ncontract MyContract is Migratable {\n  uint256 public x;\n\n  function initialize(uint256 _x) isInitializer(\"MyContract\", \"0\") public {\n    x = _x;\n  }\n\n  function increment() public {\n    x += 1;\n  }\n\n  function decrement() public {\n    x -= 1;\n  }  \n}\n",
  "sourcePath": "/Users/hadv/work/github/hadv/my-app/contracts/MyContract.sol",
  "compiler": {
    "name": "solc",
    "version": "0.4.24+commit.e67f0147.Emscripten.clang"
  },
  "schemaVersion": "2.0.0",
  "updatedAt": "2018-06-09T04:12:03.012Z"
}